{
  "contractName": "MSRVE_Ballot",
  "abi": [
    {
      "constant": true,
      "inputs": [],
      "name": "abstainCount",
      "outputs": [
        {
          "internalType": "uint256",
          "name": "",
          "type": "uint256"
        }
      ],
      "payable": false,
      "stateMutability": "view",
      "type": "function"
    },
    {
      "constant": true,
      "inputs": [],
      "name": "state",
      "outputs": [
        {
          "internalType": "enum MSRVE_Ballot.Phase",
          "name": "",
          "type": "uint8"
        }
      ],
      "payable": false,
      "stateMutability": "view",
      "type": "function"
    },
    {
      "constant": true,
      "inputs": [],
      "name": "voteCount",
      "outputs": [
        {
          "internalType": "uint256",
          "name": "",
          "type": "uint256"
        }
      ],
      "payable": false,
      "stateMutability": "view",
      "type": "function"
    },
    {
      "constant": true,
      "inputs": [],
      "name": "winner",
      "outputs": [
        {
          "internalType": "uint256",
          "name": "",
          "type": "uint256"
        }
      ],
      "payable": false,
      "stateMutability": "view",
      "type": "function"
    },
    {
      "inputs": [
        {
          "internalType": "uint8",
          "name": "num",
          "type": "uint8"
        }
      ],
      "payable": false,
      "stateMutability": "nonpayable",
      "type": "constructor"
    },
    {
      "constant": false,
      "inputs": [
        {
          "internalType": "enum MSRVE_Ballot.Phase",
          "name": "x",
          "type": "uint8"
        }
      ],
      "name": "changeState",
      "outputs": [],
      "payable": false,
      "stateMutability": "nonpayable",
      "type": "function"
    },
    {
      "constant": false,
      "inputs": [],
      "name": "register",
      "outputs": [],
      "payable": false,
      "stateMutability": "nonpayable",
      "type": "function"
    },
    {
      "constant": false,
      "inputs": [
        {
          "internalType": "uint256[]",
          "name": "inputArray",
          "type": "uint256[]"
        }
      ],
      "name": "vote",
      "outputs": [],
      "payable": false,
      "stateMutability": "nonpayable",
      "type": "function"
    },
    {
      "constant": false,
      "inputs": [
        {
          "internalType": "address",
          "name": "to",
          "type": "address"
        }
      ],
      "name": "delegatedTo",
      "outputs": [],
      "payable": false,
      "stateMutability": "nonpayable",
      "type": "function"
    },
    {
      "constant": false,
      "inputs": [],
      "name": "abstain",
      "outputs": [],
      "payable": false,
      "stateMutability": "nonpayable",
      "type": "function"
    },
    {
      "constant": false,
      "inputs": [],
      "name": "reqWinner",
      "outputs": [
        {
          "internalType": "uint256",
          "name": "",
          "type": "uint256"
        }
      ],
      "payable": false,
      "stateMutability": "nonpayable",
      "type": "function"
    }
  ],
  "bytecode": "0x60806040523480156200001157600080fd5b5060405162001af938038062001af9833981810160405260208110156200003757600080fd5b8101908080519060200190929190505050336000806101000a81548173ffffffffffffffffffffffffffffffffffffffff021916908373ffffffffffffffffffffffffffffffffffffffff1602179055506001600560008060009054906101000a900473ffffffffffffffffffffffffffffffffffffffff1673ffffffffffffffffffffffffffffffffffffffff1673ffffffffffffffffffffffffffffffffffffffff168152602001908152602001600020600001819055506000600960016101000a81548160ff021916908360028111156200011157fe5b02179055508060ff166002819055508060ff166003816200013391906200017a565b508060ff16600481620001479190620001a9565b50600060068190555060006007819055506000600960006101000a81548160ff021916908315150217905550506200020e565b815481835581811115620001a457818360005260206000209182019101620001a39190620001e6565b5b505050565b815481835581811115620001e157601f016020900481601f01602090048360005260206000209182019101620001e09190620001e6565b5b505050565b6200020b91905b8082111562000207576000816000905550600101620001ed565b5090565b90565b6118db806200021e6000396000f3fe608060405234801561001057600080fd5b506004361061009e5760003560e01c806365da12641161006657806365da126414610124578063c19d93fb14610168578063c638407114610194578063ce11f2bb146101b2578063dfbf53ae1461026a5761009e565b80631aa3a008146100a3578063268f1153146100ad5780633e118090146100de578063508b30c9146100fc5780635e98e4c71461011a575b600080fd5b6100ab610288565b005b6100dc600480360360208110156100c357600080fd5b81019080803560ff169060200190929190505050610428565b005b6100e6610510565b6040518082815260200191505060405180910390f35b610104610516565b6040518082815260200191505060405180910390f35b610122610b8d565b005b6101666004803603602081101561013a57600080fd5b81019080803573ffffffffffffffffffffffffffffffffffffffff169060200190929190505050610d63565b005b610170611335565b6040518082600281111561018057fe5b60ff16815260200191505060405180910390f35b61019c611348565b6040518082815260200191505060405180910390f35b610268600480360360208110156101c857600080fd5b81019080803590602001906401000000008111156101e557600080fd5b8201836020820111156101f757600080fd5b8035906020019184602083028401116401000000008311171561021957600080fd5b919080806020026020016040519081016040528093929190818152602001838360200280828437600081840152601f19601f82011690508083019250505050505050919291929050505061134e565b005b61027261182e565b6040518082815260200191505060405180910390f35b600080600281111561029657fe5b600960019054906101000a900460ff1660028111156102b157fe5b1115610325576040517f08c379a00000000000000000000000000000000000000000000000000000000081526004018080602001828103825260208152602001807f506861736520697320696e76616c69642e20436f6e746163742061646d696e2e81525060200191505060405180910390fd5b6000600560003373ffffffffffffffffffffffffffffffffffffffff1673ffffffffffffffffffffffffffffffffffffffff16815260200190815260200160002060000154146103dd576040517f08c379a00000000000000000000000000000000000000000000000000000000081526004018080602001828103825260138152602001807f416c72656164792072656769737465726564210000000000000000000000000081525060200191505060405180910390fd5b6001600560003373ffffffffffffffffffffffffffffffffffffffff1673ffffffffffffffffffffffffffffffffffffffff1681526020019081526020016000206000018190555050565b6000809054906101000a900473ffffffffffffffffffffffffffffffffffffffff1673ffffffffffffffffffffffffffffffffffffffff163373ffffffffffffffffffffffffffffffffffffffff16146104ea576040517f08c379a00000000000000000000000000000000000000000000000000000000081526004018080602001828103825260168152602001807f594f552e205348414c4c2e204e4f542e2050415353210000000000000000000081525060200191505060405180910390fd5b80600960016101000a81548160ff0219169083600281111561050857fe5b021790555050565b60075481565b6000600280600281111561052657fe5b600960019054906101000a900460ff16600281111561054157fe5b11156105b5576040517f08c379a00000000000000000000000000000000000000000000000000000000081526004018080602001828103825260208152602001807f506861736520697320696e76616c69642e20436f6e746163742061646d696e2e81525060200191505060405180910390fd5b600060018054905011610630576040517f08c379a00000000000000000000000000000000000000000000000000000000081526004018080602001828103825260098152602001807f4e6f20766f74657321000000000000000000000000000000000000000000000081525060200191505060405180910390fd5b600960009054906101000a900460ff161561064f576008549150610b89565b60008090505b6001600254038160ff161015610b825760008090506000610400905060006002549050600080905060008090505b6002548160ff1610156107605760038160ff16815481106106a057fe5b90600052602060002001548510156106d65760038160ff16815481106106c257fe5b906000526020600020015494508060ff1692505b60038160ff16815481106106e657fe5b90600052602060002001548411801561072c575060048160ff168154811061070a57fe5b90600052602060002090602091828204019190069054906101000a900460ff16155b156107555760038160ff168154811061074157fe5b906000526020600020015493508060ff1691505b600181019050610683565b5060026006548161076d57fe5b048411156107a657816008819055506001600960006101000a81548160ff02191690831515021790555060085496505050505050610b89565b6001600482815481106107b557fe5b90600052602060002090602091828204019190066101000a81548160ff0219169083151502179055506000600382815481106107ed57fe5b906000526020600020018190555060008090505b6001805490508160ff161015610b7257816005600060018460ff168154811061082657fe5b9060005260206000200160009054906101000a900473ffffffffffffffffffffffffffffffffffffffff1673ffffffffffffffffffffffffffffffffffffffff1673ffffffffffffffffffffffffffffffffffffffff168152602001908152602001600020600401541415610b67576005600060018360ff16815481106108a957fe5b9060005260206000200160009054906101000a900473ffffffffffffffffffffffffffffffffffffffff1673ffffffffffffffffffffffffffffffffffffffff1673ffffffffffffffffffffffffffffffffffffffff16815260200190815260200160002060030160016005600060018560ff168154811061092757fe5b9060005260206000200160009054906101000a900473ffffffffffffffffffffffffffffffffffffffff1673ffffffffffffffffffffffffffffffffffffffff1673ffffffffffffffffffffffffffffffffffffffff16815260200190815260200160002060030180549050038154811061099e57fe5b90600052602060002001546005600060018460ff16815481106109bd57fe5b9060005260206000200160009054906101000a900473ffffffffffffffffffffffffffffffffffffffff1673ffffffffffffffffffffffffffffffffffffffff1673ffffffffffffffffffffffffffffffffffffffff168152602001908152602001600020600401819055506005600060018360ff1681548110610a3d57fe5b9060005260206000200160009054906101000a900473ffffffffffffffffffffffffffffffffffffffff1673ffffffffffffffffffffffffffffffffffffffff1673ffffffffffffffffffffffffffffffffffffffff168152602001908152602001600020600301805480610aae57fe5b60019003818190600052602060002001600090559055600160036005600060018560ff1681548110610adc57fe5b9060005260206000200160009054906101000a900473ffffffffffffffffffffffffffffffffffffffff1673ffffffffffffffffffffffffffffffffffffffff1673ffffffffffffffffffffffffffffffffffffffff1681526020019081526020016000206004015481548110610b4f57fe5b90600052602060002001600082825401925050819055505b600181019050610801565b5050505050600181019050610655565b5060085491505b5090565b60001515600560003373ffffffffffffffffffffffffffffffffffffffff1673ffffffffffffffffffffffffffffffffffffffff16815260200190815260200160002060010160009054906101000a900460ff16151514610c56576040517f08c379a00000000000000000000000000000000000000000000000000000000081526004018080602001828103825260188152602001807f4e6f20766f74696e6720666f7220796f75206b6964646f21000000000000000081525060200191505060405180910390fd5b6001806002811115610c6457fe5b600960019054906101000a900460ff166002811115610c7f57fe5b1115610cf3576040517f08c379a00000000000000000000000000000000000000000000000000000000081526004018080602001828103825260208152602001807f506861736520697320696e76616c69642e20436f6e746163742061646d696e2e81525060200191505060405180910390fd5b6001600560003373ffffffffffffffffffffffffffffffffffffffff1673ffffffffffffffffffffffffffffffffffffffff16815260200190815260200160002060010160006101000a81548160ff02191690831515021790555060076000815480929190600101919050555050565b60001515600560003373ffffffffffffffffffffffffffffffffffffffff1673ffffffffffffffffffffffffffffffffffffffff16815260200190815260200160002060010160009054906101000a900460ff16151514610e2c576040517f08c379a00000000000000000000000000000000000000000000000000000000081526004018080602001828103825260188152602001807f4e6f20766f74696e6720666f7220796f75206b6964646f21000000000000000081525060200191505060405180910390fd5b6001806002811115610e3a57fe5b600960019054906101000a900460ff166002811115610e5557fe5b1115610ec9576040517f08c379a00000000000000000000000000000000000000000000000000000000081526004018080602001828103825260208152602001807f506861736520697320696e76616c69642e20436f6e746163742061646d696e2e81525060200191505060405180910390fd5b3373ffffffffffffffffffffffffffffffffffffffff168273ffffffffffffffffffffffffffffffffffffffff161415610f6b576040517f08c379a00000000000000000000000000000000000000000000000000000000081526004018080602001828103825260178152602001807f446f6e27742064656c656761746520746f2073656c662e00000000000000000081525060200191505060405180910390fd5b6000600560003373ffffffffffffffffffffffffffffffffffffffff1673ffffffffffffffffffffffffffffffffffffffff16815260200190815260200160002090505b600073ffffffffffffffffffffffffffffffffffffffff16600560008573ffffffffffffffffffffffffffffffffffffffff1673ffffffffffffffffffffffffffffffffffffffff16815260200190815260200160002060050160009054906101000a900473ffffffffffffffffffffffffffffffffffffffff1673ffffffffffffffffffffffffffffffffffffffff16141580156110dc57503373ffffffffffffffffffffffffffffffffffffffff16600560008573ffffffffffffffffffffffffffffffffffffffff1673ffffffffffffffffffffffffffffffffffffffff16815260200190815260200160002060050160009054906101000a900473ffffffffffffffffffffffffffffffffffffffff1673ffffffffffffffffffffffffffffffffffffffff1614155b1561114b57600560008473ffffffffffffffffffffffffffffffffffffffff1673ffffffffffffffffffffffffffffffffffffffff16815260200190815260200160002060050160009054906101000a900473ffffffffffffffffffffffffffffffffffffffff169250610faf565b3373ffffffffffffffffffffffffffffffffffffffff168373ffffffffffffffffffffffffffffffffffffffff1614156111ed576040517f08c379a000000000000000000000000000000000000000000000000000000000815260040180806020018281038252600e8152602001807f44656c65676174696f6e2044414700000000000000000000000000000000000081525060200191505060405180910390fd5b60018160010160006101000a81548160ff021916908315150217905550828160050160006101000a81548173ffffffffffffffffffffffffffffffffffffffff021916908373ffffffffffffffffffffffffffffffffffffffff1602179055506000600560008573ffffffffffffffffffffffffffffffffffffffff1673ffffffffffffffffffffffffffffffffffffffff16815260200190815260200160002090508060010160009054906101000a900460ff166112c1578160000154816000016000828254019250508190555061132f565b6040517f08c379a00000000000000000000000000000000000000000000000000000000081526004018080602001828103825260198152602001807f4e657720706572736f6e20616c726561647920766f746564210000000000000081525060200191505060405180910390fd5b50505050565b600960019054906101000a900460ff1681565b60065481565b60001515600560003373ffffffffffffffffffffffffffffffffffffffff1673ffffffffffffffffffffffffffffffffffffffff16815260200190815260200160002060010160009054906101000a900460ff16151514611417576040517f08c379a00000000000000000000000000000000000000000000000000000000081526004018080602001828103825260188152602001807f4e6f20766f74696e6720666f7220796f75206b6964646f21000000000000000081525060200191505060405180910390fd5b600180600281111561142557fe5b600960019054906101000a900460ff16600281111561144057fe5b11156114b4576040517f08c379a00000000000000000000000000000000000000000000000000000000081526004018080602001828103825260208152602001807f506861736520697320696e76616c69642e20436f6e746163742061646d696e2e81525060200191505060405180910390fd5b6000600560003373ffffffffffffffffffffffffffffffffffffffff1673ffffffffffffffffffffffffffffffffffffffff168152602001908152602001600020600001541161156c576040517f08c379a000000000000000000000000000000000000000000000000000000000815260040180806020018281038252600f8152602001807f526567697374657220666972737421000000000000000000000000000000000081525060200191505060405180910390fd5b600560003373ffffffffffffffffffffffffffffffffffffffff1673ffffffffffffffffffffffffffffffffffffffff168152602001908152602001600020600001546003836001855103815181106115c157fe5b6020026020010151815481106115d357fe5b9060005260206000200160008282540192505081905550816001835103815181106115fa57fe5b6020026020010151600560003373ffffffffffffffffffffffffffffffffffffffff1673ffffffffffffffffffffffffffffffffffffffff1681526020019081526020016000206004018190555081600560003373ffffffffffffffffffffffffffffffffffffffff1673ffffffffffffffffffffffffffffffffffffffff168152602001908152602001600020600201908051906020019061169e929190611834565b5081600560003373ffffffffffffffffffffffffffffffffffffffff1673ffffffffffffffffffffffffffffffffffffffff16815260200190815260200160002060030190805190602001906116f5929190611834565b50600560003373ffffffffffffffffffffffffffffffffffffffff1673ffffffffffffffffffffffffffffffffffffffff16815260200190815260200160002060030180548061174157fe5b600190038181906000526020600020016000905590556001600560003373ffffffffffffffffffffffffffffffffffffffff1673ffffffffffffffffffffffffffffffffffffffff16815260200190815260200160002060010160006101000a81548160ff02191690831515021790555060013390806001815401808255809150509060018203906000526020600020016000909192909190916101000a81548173ffffffffffffffffffffffffffffffffffffffff021916908373ffffffffffffffffffffffffffffffffffffffff160217905550506006600081548092919060010191905055505050565b60085481565b828054828255906000526020600020908101928215611870579160200282015b8281111561186f578251825591602001919060010190611854565b5b50905061187d9190611881565b5090565b6118a391905b8082111561189f576000816000905550600101611887565b5090565b9056fea265627a7a723158204a0e4cd0481acbe9e18534dceb12197f79f38a1e447608d4971a891021e5fc2264736f6c634300050b0032",
  "source": "pragma solidity ^0.5.11;\n\ncontract MSRVE_Ballot {\n\n    struct Voter {\n        uint weight;\n        bool voted;\n        uint256[] vote;\n        uint256[] curList;\n        uint256 preference;\n        address delegate;\n    }\n\n    address admin;\n    address[] voterList;\n    uint256 numProposals;\n    uint256[] runningCount;\n    bool[] invalidCandidates;\n    mapping(address => Voter) voters;\n\n    uint public voteCount;\n    uint public abstainCount;\n\n    uint256 public winner;\n    bool calc;\n\n    enum Phase {Regs, Vote, Done}\n\n    Phase public state;\n\n    modifier validPhase(Phase reqPhase) {require(state <= reqPhase, \"Phase is invalid. Contact admin.\"); _;}\n\n    modifier onlyAdmin() {require(msg.sender == admin, \"YOU. SHALL. NOT. PASS!\"); _;}\n\n    modifier canVote() {require(voters[msg.sender].voted == false, \"No voting for you kiddo!\"); _;}\n\n    constructor (uint8 num) public  {\n\n        admin = msg.sender;\n        voters[admin].weight = 1;\n        state = Phase.Regs;\n        numProposals = num;\n        runningCount.length = num;\n        invalidCandidates.length = num;\n        voteCount = 0;\n        abstainCount = 0;\n        calc = false;\n    }\n\n    function changeState(Phase x) public onlyAdmin{\n        state = x;\n    }\n\n    function register() public validPhase(Phase.Regs) {\n\n        require (voters[msg.sender].weight == 0, \"Already registered!\");   // So that func can run once per user.\n        voters[msg.sender].weight = 1;\n    }\n\n    function vote(uint256[] memory inputArray) public canVote validPhase(Phase.Vote) {\n\n        require(voters[msg.sender].weight > 0, \"Register first!\");\n\n        runningCount[inputArray[inputArray.length-1]] += voters[msg.sender].weight;\n\n        voters[msg.sender].preference = inputArray[inputArray.length-1];\n        voters[msg.sender].vote = inputArray;\n        voters[msg.sender].curList = inputArray;\n        voters[msg.sender].curList.pop();\n        voters[msg.sender].voted = true;\n        voterList.push(msg.sender);\n\n        voteCount++;\n\n    }\n\n    function delegatedTo(address to) public canVote validPhase(Phase.Vote) {\n\n        require(to != msg.sender, \"Don't delegate to self.\");\n\n        Voter storage sender = voters[msg.sender]; // assigns reference\n\n        while (voters[to].delegate != address(0) && voters[to].delegate != msg.sender)\n            to = voters[to].delegate;\n\n        if (to == msg.sender)\n            revert(\"Delegation DAG\");\n\n        sender.voted = true;\n        sender.delegate = to;\n        Voter storage delegateTo = voters[to];\n\n        if (!delegateTo.voted)\n            delegateTo.weight += sender.weight;\n        else\n            revert(\"New person already voted!\");\n    }\n\n    function abstain() public canVote validPhase(Phase.Vote) {\n\n        voters[msg.sender].voted = true;\n        abstainCount++;\n    }\n\n    function reqWinner() public validPhase(Phase.Done) returns (uint256 ) {\n\n        require(voterList.length > 0, \"No votes!\");\n\n        if(calc)\n            return winner;\n\n        for(uint8 recur = 0; recur < numProposals-1; recur += 1){\n            // Loop should have a solution in numProposals-1 iterations.\n            // While loop here could cause infinite loop.\n\n            uint256 max = 0;\n            uint256 min = 2**10;\n            uint256 win = numProposals;\n            uint256 lose = 0;\n\n            for(uint8 i = 0; i < numProposals; i += 1){\n                if(max<runningCount[i]) {\n                    max = runningCount[i];\n                    win = i;\n                }\n                if(min>runningCount[i] && !invalidCandidates[i]) {\n                    min = runningCount[i];\n                    lose = i;\n                }\n            }\n\n            if(max > voteCount / 2) {\n                winner = win;\n                calc = true;\n                return winner;\n            }\n            else {\n                invalidCandidates[lose] = true;\n                runningCount[lose] = 0;\n                for(uint8 j = 0; j < voterList.length; j += 1) {\n                    if(voters[voterList[j]].preference == lose){\n                        // recalc\n                        voters[voterList[j]].preference = voters[voterList[j]].curList[voters[voterList[j]].curList.length-1];\n                        voters[voterList[j]].curList.pop();\n                        runningCount[voters[voterList[j]].preference] += 1;\n                    }\n                }\n            }\n\n\n        }\n        return winner;\n    }\n}\n",
  "sourcePath": "/home/ved/MSRVE-Ballot-Dapp/ballot-contract/contracts/MSRVE_Ballot.sol",
  "compiler": {
    "name": "solc",
    "version": "0.5.11+commit.c082d0b4.Emscripten.clang"
  },
  "schemaVersion": "3.0.16",
  "updatedAt": "2019-11-09T08:40:04.680Z",
  "devdoc": {
    "methods": {}
  },
  "userdoc": {
    "methods": {}
  }
}