{
  "contractName": "MSRVE_Ballot",
  "abi": [
    {
      "constant": true,
      "inputs": [],
      "name": "abstainCount",
      "outputs": [
        {
          "internalType": "uint256",
          "name": "",
          "type": "uint256"
        }
      ],
      "payable": false,
      "stateMutability": "view",
      "type": "function"
    },
    {
      "constant": true,
      "inputs": [],
      "name": "state",
      "outputs": [
        {
          "internalType": "enum MSRVE_Ballot.Phase",
          "name": "",
          "type": "uint8"
        }
      ],
      "payable": false,
      "stateMutability": "view",
      "type": "function"
    },
    {
      "constant": true,
      "inputs": [],
      "name": "voteCount",
      "outputs": [
        {
          "internalType": "uint256",
          "name": "",
          "type": "uint256"
        }
      ],
      "payable": false,
      "stateMutability": "view",
      "type": "function"
    },
    {
      "constant": true,
      "inputs": [],
      "name": "winner",
      "outputs": [
        {
          "internalType": "uint256",
          "name": "",
          "type": "uint256"
        }
      ],
      "payable": false,
      "stateMutability": "view",
      "type": "function"
    },
    {
      "inputs": [
        {
          "internalType": "uint8",
          "name": "num",
          "type": "uint8"
        }
      ],
      "payable": false,
      "stateMutability": "nonpayable",
      "type": "constructor"
    },
    {
      "constant": false,
      "inputs": [
        {
          "internalType": "enum MSRVE_Ballot.Phase",
          "name": "x",
          "type": "uint8"
        }
      ],
      "name": "changeState",
      "outputs": [],
      "payable": false,
      "stateMutability": "nonpayable",
      "type": "function"
    },
    {
      "constant": false,
      "inputs": [],
      "name": "register",
      "outputs": [],
      "payable": false,
      "stateMutability": "nonpayable",
      "type": "function"
    },
    {
      "constant": false,
      "inputs": [
        {
          "internalType": "uint256[]",
          "name": "inputArray",
          "type": "uint256[]"
        }
      ],
      "name": "vote",
      "outputs": [],
      "payable": false,
      "stateMutability": "nonpayable",
      "type": "function"
    },
    {
      "constant": false,
      "inputs": [
        {
          "internalType": "address",
          "name": "To",
          "type": "address"
        }
      ],
      "name": "delegatedTo",
      "outputs": [],
      "payable": false,
      "stateMutability": "nonpayable",
      "type": "function"
    },
    {
      "constant": false,
      "inputs": [],
      "name": "abstain",
      "outputs": [],
      "payable": false,
      "stateMutability": "nonpayable",
      "type": "function"
    },
    {
      "constant": false,
      "inputs": [],
      "name": "calcWinner",
      "outputs": [],
      "payable": false,
      "stateMutability": "nonpayable",
      "type": "function"
    },
    {
      "constant": true,
      "inputs": [],
      "name": "getWinner",
      "outputs": [
        {
          "internalType": "uint256",
          "name": "",
          "type": "uint256"
        }
      ],
      "payable": false,
      "stateMutability": "view",
      "type": "function"
    }
  ],
  "bytecode": "0x60806040523480156200001157600080fd5b5060405162001d9138038062001d91833981810160405260208110156200003757600080fd5b8101908080519060200190929190505050336000806101000a81548173ffffffffffffffffffffffffffffffffffffffff021916908373ffffffffffffffffffffffffffffffffffffffff1602179055506001600560008060009054906101000a900473ffffffffffffffffffffffffffffffffffffffff1673ffffffffffffffffffffffffffffffffffffffff1673ffffffffffffffffffffffffffffffffffffffff168152602001908152602001600020600001819055506000600960016101000a81548160ff021916908360028111156200011157fe5b02179055508060ff166002819055508060ff166003816200013391906200017a565b508060ff16600481620001479190620001a9565b50600060068190555060006007819055506000600960006101000a81548160ff021916908315150217905550506200020e565b815481835581811115620001a457818360005260206000209182019101620001a39190620001e6565b5b505050565b815481835581811115620001e157601f016020900481601f01602090048360005260206000209182019101620001e09190620001e6565b5b505050565b6200020b91905b8082111562000207576000816000905550600101620001ed565b5090565b90565b611b73806200021e6000396000f3fe608060405234801561001057600080fd5b50600436106100a95760003560e01c806365da12641161007157806365da12641461011b5780638e7ea5b21461015f578063c19d93fb1461017d578063c6384071146101a9578063ce11f2bb146101c7578063dfbf53ae1461027f576100a9565b80631aa3a008146100ae578063268f1153146100b85780633a6af799146100e95780633e118090146100f35780635e98e4c714610111575b600080fd5b6100b661029d565b005b6100e7600480360360208110156100ce57600080fd5b81019080803560ff16906020019092919050505061043c565b005b6100f1610524565b005b6100fb610cb3565b6040518082815260200191505060405180910390f35b610119610cb9565b005b61015d6004803603602081101561013157600080fd5b81019080803573ffffffffffffffffffffffffffffffffffffffff169060200190929190505050610e8e565b005b610167611465565b6040518082815260200191505060405180910390f35b61018561158e565b6040518082600281111561019557fe5b60ff16815260200191505060405180910390f35b6101b16115a1565b6040518082815260200191505060405180910390f35b61027d600480360360208110156101dd57600080fd5b81019080803590602001906401000000008111156101fa57600080fd5b82018360208201111561020c57600080fd5b8035906020019184602083028401116401000000008311171561022e57600080fd5b919080806020026020016040519081016040528093929190818152602001838360200280828437600081840152601f19601f8201169050808301925050505050505091929192905050506115a7565b005b610287611ac6565b6040518082815260200191505060405180910390f35b60008060028111156102ab57fe5b600960019054906101000a900460ff1660028111156102c657fe5b14610339576040517f08c379a00000000000000000000000000000000000000000000000000000000081526004018080602001828103825260208152602001807f506861736520697320696e76616c69642e20436f6e746163742061646d696e2e81525060200191505060405180910390fd5b6000600560003373ffffffffffffffffffffffffffffffffffffffff1673ffffffffffffffffffffffffffffffffffffffff16815260200190815260200160002060000154146103f1576040517f08c379a00000000000000000000000000000000000000000000000000000000081526004018080602001828103825260138152602001807f416c72656164792072656769737465726564210000000000000000000000000081525060200191505060405180910390fd5b6001600560003373ffffffffffffffffffffffffffffffffffffffff1673ffffffffffffffffffffffffffffffffffffffff1681526020019081526020016000206000018190555050565b6000809054906101000a900473ffffffffffffffffffffffffffffffffffffffff1673ffffffffffffffffffffffffffffffffffffffff163373ffffffffffffffffffffffffffffffffffffffff16146104fe576040517f08c379a00000000000000000000000000000000000000000000000000000000081526004018080602001828103825260168152602001807f594f552e205348414c4c2e204e4f542e2050415353210000000000000000000081525060200191505060405180910390fd5b80600960016101000a81548160ff0219169083600281111561051c57fe5b021790555050565b6000809054906101000a900473ffffffffffffffffffffffffffffffffffffffff1673ffffffffffffffffffffffffffffffffffffffff163373ffffffffffffffffffffffffffffffffffffffff16146105e6576040517f08c379a00000000000000000000000000000000000000000000000000000000081526004018080602001828103825260168152602001807f594f552e205348414c4c2e204e4f542e2050415353210000000000000000000081525060200191505060405180910390fd5b60028060028111156105f457fe5b600960019054906101000a900460ff16600281111561060f57fe5b14610682576040517f08c379a00000000000000000000000000000000000000000000000000000000081526004018080602001828103825260208152602001807f506861736520697320696e76616c69642e20436f6e746163742061646d696e2e81525060200191505060405180910390fd5b6000600180549050116106fd576040517f08c379a00000000000000000000000000000000000000000000000000000000081526004018080602001828103825260098152602001807f4e6f20766f74657321000000000000000000000000000000000000000000000081525060200191505060405180910390fd5b600960009054906101000a900460ff1615610780576040517f08c379a000000000000000000000000000000000000000000000000000000000815260040180806020018281038252601a8152602001807f57696e6e657220616c72656164792063616c63756c617465642100000000000081525060200191505060405180910390fd5b60008090505b6001600254038160ff161015610cae5760008090506000610400905060006002549050600080905060008090505b6002548160ff1610156108915760038160ff16815481106107d157fe5b90600052602060002001548510156108075760038160ff16815481106107f357fe5b906000526020600020015494508060ff1692505b60038160ff168154811061081757fe5b90600052602060002001548411801561085d575060048160ff168154811061083b57fe5b90600052602060002090602091828204019190069054906101000a900460ff16155b156108865760038160ff168154811061087257fe5b906000526020600020015493508060ff1691505b6001810190506107b4565b5060026006548161089e57fe5b048411156108d257816008819055506001600960006101000a81548160ff0219169083151502179055505050505050610cb0565b6001600482815481106108e157fe5b90600052602060002090602091828204019190066101000a81548160ff02191690831515021790555060006003828154811061091957fe5b906000526020600020018190555060008090505b6001805490508160ff161015610c9e57816005600060018460ff168154811061095257fe5b9060005260206000200160009054906101000a900473ffffffffffffffffffffffffffffffffffffffff1673ffffffffffffffffffffffffffffffffffffffff1673ffffffffffffffffffffffffffffffffffffffff168152602001908152602001600020600401541415610c93576005600060018360ff16815481106109d557fe5b9060005260206000200160009054906101000a900473ffffffffffffffffffffffffffffffffffffffff1673ffffffffffffffffffffffffffffffffffffffff1673ffffffffffffffffffffffffffffffffffffffff16815260200190815260200160002060030160016005600060018560ff1681548110610a5357fe5b9060005260206000200160009054906101000a900473ffffffffffffffffffffffffffffffffffffffff1673ffffffffffffffffffffffffffffffffffffffff1673ffffffffffffffffffffffffffffffffffffffff168152602001908152602001600020600301805490500381548110610aca57fe5b90600052602060002001546005600060018460ff1681548110610ae957fe5b9060005260206000200160009054906101000a900473ffffffffffffffffffffffffffffffffffffffff1673ffffffffffffffffffffffffffffffffffffffff1673ffffffffffffffffffffffffffffffffffffffff168152602001908152602001600020600401819055506005600060018360ff1681548110610b6957fe5b9060005260206000200160009054906101000a900473ffffffffffffffffffffffffffffffffffffffff1673ffffffffffffffffffffffffffffffffffffffff1673ffffffffffffffffffffffffffffffffffffffff168152602001908152602001600020600301805480610bda57fe5b60019003818190600052602060002001600090559055600160036005600060018560ff1681548110610c0857fe5b9060005260206000200160009054906101000a900473ffffffffffffffffffffffffffffffffffffffff1673ffffffffffffffffffffffffffffffffffffffff1673ffffffffffffffffffffffffffffffffffffffff1681526020019081526020016000206004015481548110610c7b57fe5b90600052602060002001600082825401925050819055505b60018101905061092d565b5050505050600181019050610786565b505b50565b60075481565b60001515600560003373ffffffffffffffffffffffffffffffffffffffff1673ffffffffffffffffffffffffffffffffffffffff16815260200190815260200160002060010160009054906101000a900460ff16151514610d82576040517f08c379a00000000000000000000000000000000000000000000000000000000081526004018080602001828103825260188152602001807f4e6f20766f74696e6720666f7220796f75206b6964646f21000000000000000081525060200191505060405180910390fd5b6001806002811115610d9057fe5b600960019054906101000a900460ff166002811115610dab57fe5b14610e1e576040517f08c379a00000000000000000000000000000000000000000000000000000000081526004018080602001828103825260208152602001807f506861736520697320696e76616c69642e20436f6e746163742061646d696e2e81525060200191505060405180910390fd5b6001600560003373ffffffffffffffffffffffffffffffffffffffff1673ffffffffffffffffffffffffffffffffffffffff16815260200190815260200160002060010160006101000a81548160ff02191690831515021790555060076000815480929190600101919050555050565b60001515600560003373ffffffffffffffffffffffffffffffffffffffff1673ffffffffffffffffffffffffffffffffffffffff16815260200190815260200160002060010160009054906101000a900460ff16151514610f57576040517f08c379a00000000000000000000000000000000000000000000000000000000081526004018080602001828103825260188152602001807f4e6f20766f74696e6720666f7220796f75206b6964646f21000000000000000081525060200191505060405180910390fd5b6001806002811115610f6557fe5b600960019054906101000a900460ff166002811115610f8057fe5b14610ff3576040517f08c379a00000000000000000000000000000000000000000000000000000000081526004018080602001828103825260208152602001807f506861736520697320696e76616c69642e20436f6e746163742061646d696e2e81525060200191505060405180910390fd5b3373ffffffffffffffffffffffffffffffffffffffff168273ffffffffffffffffffffffffffffffffffffffff161415611095576040517f08c379a00000000000000000000000000000000000000000000000000000000081526004018080602001828103825260178152602001807f446f6e27742064656c656761746520746f2073656c662e00000000000000000081525060200191505060405180910390fd5b60008290506000600560003373ffffffffffffffffffffffffffffffffffffffff1673ffffffffffffffffffffffffffffffffffffffff16815260200190815260200160002090505b600073ffffffffffffffffffffffffffffffffffffffff16600560008473ffffffffffffffffffffffffffffffffffffffff1673ffffffffffffffffffffffffffffffffffffffff16815260200190815260200160002060050160009054906101000a900473ffffffffffffffffffffffffffffffffffffffff1673ffffffffffffffffffffffffffffffffffffffff161415801561120b57503373ffffffffffffffffffffffffffffffffffffffff16600560008473ffffffffffffffffffffffffffffffffffffffff1673ffffffffffffffffffffffffffffffffffffffff16815260200190815260200160002060050160009054906101000a900473ffffffffffffffffffffffffffffffffffffffff1673ffffffffffffffffffffffffffffffffffffffff1614155b1561127a57600560008373ffffffffffffffffffffffffffffffffffffffff1673ffffffffffffffffffffffffffffffffffffffff16815260200190815260200160002060050160009054906101000a900473ffffffffffffffffffffffffffffffffffffffff1691506110de565b3373ffffffffffffffffffffffffffffffffffffffff168273ffffffffffffffffffffffffffffffffffffffff16141561131c576040517f08c379a000000000000000000000000000000000000000000000000000000000815260040180806020018281038252600e8152602001807f44656c65676174696f6e2044434700000000000000000000000000000000000081525060200191505060405180910390fd5b60018160010160006101000a81548160ff021916908315150217905550818160050160006101000a81548173ffffffffffffffffffffffffffffffffffffffff021916908373ffffffffffffffffffffffffffffffffffffffff1602179055506000600560008473ffffffffffffffffffffffffffffffffffffffff1673ffffffffffffffffffffffffffffffffffffffff16815260200190815260200160002090508060010160009054906101000a900460ff166113f0578160000154816000016000828254019250508190555061145e565b6040517f08c379a00000000000000000000000000000000000000000000000000000000081526004018080602001828103825260198152602001807f4e657720706572736f6e20616c726561647920766f746564210000000000000081525060200191505060405180910390fd5b5050505050565b6000600280600281111561147557fe5b600960019054906101000a900460ff16600281111561149057fe5b14611503576040517f08c379a00000000000000000000000000000000000000000000000000000000081526004018080602001828103825260208152602001807f506861736520697320696e76616c69642e20436f6e746163742061646d696e2e81525060200191505060405180910390fd5b600960009054906101000a900460ff16611585576040517f08c379a00000000000000000000000000000000000000000000000000000000081526004018080602001828103825260168152602001807f57696e6e6572206e6f742063616c63756c61746564210000000000000000000081525060200191505060405180910390fd5b60085491505090565b600960019054906101000a900460ff1681565b60065481565b60001515600560003373ffffffffffffffffffffffffffffffffffffffff1673ffffffffffffffffffffffffffffffffffffffff16815260200190815260200160002060010160009054906101000a900460ff16151514611670576040517f08c379a00000000000000000000000000000000000000000000000000000000081526004018080602001828103825260188152602001807f4e6f20766f74696e6720666f7220796f75206b6964646f21000000000000000081525060200191505060405180910390fd5b600180600281111561167e57fe5b600960019054906101000a900460ff16600281111561169957fe5b1461170c576040517f08c379a00000000000000000000000000000000000000000000000000000000081526004018080602001828103825260208152602001807f506861736520697320696e76616c69642e20436f6e746163742061646d696e2e81525060200191505060405180910390fd5b6000600560003373ffffffffffffffffffffffffffffffffffffffff1673ffffffffffffffffffffffffffffffffffffffff16815260200190815260200160002060000154116117c4576040517f08c379a000000000000000000000000000000000000000000000000000000000815260040180806020018281038252600f8152602001807f526567697374657220666972737421000000000000000000000000000000000081525060200191505060405180910390fd5b600560003373ffffffffffffffffffffffffffffffffffffffff1673ffffffffffffffffffffffffffffffffffffffff1681526020019081526020016000206000015460038360018551038151811061181957fe5b60200260200101518154811061182b57fe5b90600052602060002001600082825401925050819055508160018351038151811061185257fe5b6020026020010151600560003373ffffffffffffffffffffffffffffffffffffffff1673ffffffffffffffffffffffffffffffffffffffff1681526020019081526020016000206004018190555081600560003373ffffffffffffffffffffffffffffffffffffffff1673ffffffffffffffffffffffffffffffffffffffff16815260200190815260200160002060020190805190602001906118f6929190611acc565b5081600560003373ffffffffffffffffffffffffffffffffffffffff1673ffffffffffffffffffffffffffffffffffffffff168152602001908152602001600020600301908051906020019061194d929190611acc565b50600560003373ffffffffffffffffffffffffffffffffffffffff1673ffffffffffffffffffffffffffffffffffffffff16815260200190815260200160002060030180548061199957fe5b600190038181906000526020600020016000905590556001600560003373ffffffffffffffffffffffffffffffffffffffff1673ffffffffffffffffffffffffffffffffffffffff16815260200190815260200160002060010160006101000a81548160ff02191690831515021790555060013390806001815401808255809150509060018203906000526020600020016000909192909190916101000a81548173ffffffffffffffffffffffffffffffffffffffff021916908373ffffffffffffffffffffffffffffffffffffffff16021790555050600560003373ffffffffffffffffffffffffffffffffffffffff1673ffffffffffffffffffffffffffffffffffffffff168152602001908152602001600020600001546006600082825401925050819055505050565b60085481565b828054828255906000526020600020908101928215611b08579160200282015b82811115611b07578251825591602001919060010190611aec565b5b509050611b159190611b19565b5090565b611b3b91905b80821115611b37576000816000905550600101611b1f565b5090565b9056fea265627a7a7231582090468666b489589f8caf956cd18975bb0b2a679f782aab41a74c292857ac3e2064736f6c634300050b0032",
  "source": "pragma solidity ^0.5.11;\n\ncontract MSRVE_Ballot {\n\n    struct Voter {\n        uint weight;\n        bool voted;\n        uint256[] vote; //ranked vote\n        uint256[] curList; //updated temp list of calculating final votes\n        uint256 preference; //your first prefrnc\n        address delegate;\n    }\n\n    address admin;\n    address[] voterList;\n    uint256 numProposals; //candidates to be voted for\n    uint256[] runningCount;\n    bool[] invalidCandidates; //to Remove Loosers\n    mapping(address => Voter) voters;\n\n    uint public voteCount; //how many ppl have voted\n    uint public abstainCount; //number of people abstained\n\n    uint256 public winner;\n    bool calc;\n\n    enum Phase {Regs, Vote, Done}\n\n    Phase public state;\n\n    modifier validPhase(Phase reqPhase) {require(state == reqPhase, \"Phase is invalid. Contact admin.\"); _;}\n\n    modifier onlyAdmin() {require(msg.sender == admin, \"YOU. SHALL. NOT. PASS!\"); _;}\n\n    modifier canVote() {require(voters[msg.sender].voted == false, \"No voting for you kiddo!\"); _;}\n\n    constructor (uint8 num) public  {\n\n        admin = msg.sender;\n        voters[admin].weight = 1;\n        state = Phase.Regs;\n        numProposals = num;\n        runningCount.length = num;\n        invalidCandidates.length = num;\n        voteCount = 0;\n        abstainCount = 0;\n        calc = false;\n    }\n\n    function changeState(Phase x) public onlyAdmin{\n        state = x;\n    }\n\n    function register() public validPhase(Phase.Regs) {\n\n        require (voters[msg.sender].weight == 0, \"Already registered!\");   // So that func can run once per user.\n        voters[msg.sender].weight = 1;\n    }\n\n    function vote(uint256[] memory inputArray) public canVote validPhase(Phase.Vote) {\n\n        require(voters[msg.sender].weight > 0, \"Register first!\");\n        //running count of given index should be incremented by weight(for now 1)\n        runningCount[inputArray[inputArray.length-1]] += voters[msg.sender].weight;\n\n        voters[msg.sender].preference = inputArray[inputArray.length-1];\n        voters[msg.sender].vote = inputArray; //initial vote prefrnc of voter\n        voters[msg.sender].curList = inputArray;\n        voters[msg.sender].curList.pop();\n        voters[msg.sender].voted = true;\n        voterList.push(msg.sender);\n\n        voteCount += voters[msg.sender].weight;\n\n    }\n\n    function delegatedTo(address To) public canVote validPhase(Phase.Vote) {\n\n        require(To != msg.sender, \"Don't delegate to self.\");\n\n        address to = To;\n\n        Voter storage sender = voters[msg.sender]; // assigns reference\n        //chain reaction\n        while (voters[to].delegate != address(0) && voters[to].delegate != msg.sender)\n            to = voters[to].delegate;\n        //no round robin\n        if (to == msg.sender)\n            revert(\"Delegation DCG\");\n\n        sender.voted = true;\n        sender.delegate = to;\n        Voter storage dTo = voters[to];\n\n        if (!dTo.voted)\n            dTo.weight += sender.weight;\n        else\n            revert(\"New person already voted!\");\n    }\n\n    function abstain() public canVote validPhase(Phase.Vote) {\n\n        voters[msg.sender].voted = true;\n        abstainCount++;\n    }\n\n    // function calcWinner() public validPhase(Phase.Done) returns (uint256 ) {\n    function calcWinner() public onlyAdmin validPhase(Phase.Done) {\n\n        require(voterList.length > 0, \"No votes!\");\n        require(!calc, \"Winner already calculated!\");\n\n        // if(calc)\n        //     return winner;\n\n        for(uint8 recur = 0; recur < numProposals-1; recur += 1){\n            // Loop should have a solution in numProposals-1 iterations.\n            // While loop here could cause infinite loop.\n\n            uint256 max = 0; //max votes right now in the array- for current leading candidate\n            uint256 min = 2**10; //min votes right now- for knockout candidate\n            uint256 win = numProposals; //one with max\n            uint256 lose = 0; //one with min\n\n            for(uint8 i = 0; i < numProposals; i += 1){\n                if(max<runningCount[i]) {\n                    max = runningCount[i];\n                    win = i;\n                }\n                if(min>runningCount[i] && !invalidCandidates[i]) {\n                    min = runningCount[i];\n                    lose = i;\n                }\n            }\n\n            if(max > voteCount / 2) {\n                winner = win;\n                calc = true;\n                return;\n            }\n            else {\n                invalidCandidates[lose] = true;\n                runningCount[lose] = 0;\n                for(uint8 j = 0; j < voterList.length; j += 1) {\n                    //if your candidate is now out we need your next preference\n                    if(voters[voterList[j]].preference == lose){\n                        // recalc\n                        voters[voterList[j]].preference = voters[voterList[j]].curList[voters[voterList[j]].curList.length-1];\n                        voters[voterList[j]].curList.pop();\n                        runningCount[voters[voterList[j]].preference] += 1;\n                    }\n                }\n            }\n\n\n        }\n        // return winner;\n    }\n\n    function getWinner() public view validPhase(Phase.Done) returns (uint256) {\n        require(calc, \"Winner not calculated!\");\n        return winner;\n    }\n}\n",
  "sourcePath": "/home/ved/MSRVE-Ballot-Dapp/ballot-contract/contracts/MSRVE_Ballot.sol",
  "compiler": {
    "name": "solc",
    "version": "0.5.11+commit.c082d0b4.Emscripten.clang"
  },
  "schemaVersion": "3.0.16",
  "updatedAt": "2019-11-12T22:15:05.926Z",
  "devdoc": {
    "methods": {}
  },
  "userdoc": {
    "methods": {}
  }
}