{
  "contractName": "MSRVE_Ballot",
  "abi": [
    {
      "constant": true,
      "inputs": [],
      "name": "cand",
      "outputs": [
        {
          "internalType": "uint256",
          "name": "",
          "type": "uint256"
        }
      ],
      "payable": false,
      "stateMutability": "view",
      "type": "function"
    },
    {
      "constant": true,
      "inputs": [
        {
          "internalType": "uint256",
          "name": "",
          "type": "uint256"
        }
      ],
      "name": "voted",
      "outputs": [
        {
          "internalType": "uint256",
          "name": "",
          "type": "uint256"
        }
      ],
      "payable": false,
      "stateMutability": "view",
      "type": "function"
    },
    {
      "constant": true,
      "inputs": [],
      "name": "calc",
      "outputs": [
        {
          "internalType": "bool",
          "name": "",
          "type": "bool"
        }
      ],
      "payable": false,
      "stateMutability": "view",
      "type": "function"
    },
    {
      "constant": true,
      "inputs": [],
      "name": "state",
      "outputs": [
        {
          "internalType": "enum MSRVE_Ballot.Phase",
          "name": "",
          "type": "uint8"
        }
      ],
      "payable": false,
      "stateMutability": "view",
      "type": "function"
    },
    {
      "constant": true,
      "inputs": [],
      "name": "winner",
      "outputs": [
        {
          "internalType": "uint256",
          "name": "",
          "type": "uint256"
        }
      ],
      "payable": false,
      "stateMutability": "view",
      "type": "function"
    },
    {
      "constant": true,
      "inputs": [
        {
          "internalType": "uint256",
          "name": "",
          "type": "uint256"
        }
      ],
      "name": "_rankVote",
      "outputs": [
        {
          "internalType": "uint256",
          "name": "",
          "type": "uint256"
        }
      ],
      "payable": false,
      "stateMutability": "view",
      "type": "function"
    },
    {
      "inputs": [
        {
          "internalType": "uint8",
          "name": "num",
          "type": "uint8"
        }
      ],
      "payable": false,
      "stateMutability": "nonpayable",
      "type": "constructor"
    },
    {
      "anonymous": false,
      "inputs": [
        {
          "indexed": false,
          "internalType": "bytes32",
          "name": "message",
          "type": "bytes32"
        },
        {
          "indexed": false,
          "internalType": "uint256",
          "name": "amount",
          "type": "uint256"
        }
      ],
      "name": "LogEval",
      "type": "event"
    },
    {
      "constant": false,
      "inputs": [
        {
          "internalType": "enum MSRVE_Ballot.Phase",
          "name": "x",
          "type": "uint8"
        }
      ],
      "name": "changeState",
      "outputs": [],
      "payable": false,
      "stateMutability": "nonpayable",
      "type": "function"
    },
    {
      "constant": false,
      "inputs": [],
      "name": "register",
      "outputs": [],
      "payable": false,
      "stateMutability": "nonpayable",
      "type": "function"
    },
    {
      "constant": false,
      "inputs": [
        {
          "internalType": "uint256[]",
          "name": "inputArray",
          "type": "uint256[]"
        }
      ],
      "name": "vote",
      "outputs": [],
      "payable": false,
      "stateMutability": "nonpayable",
      "type": "function"
    },
    {
      "constant": false,
      "inputs": [
        {
          "internalType": "address",
          "name": "to",
          "type": "address"
        }
      ],
      "name": "delegatedTo",
      "outputs": [],
      "payable": false,
      "stateMutability": "nonpayable",
      "type": "function"
    },
    {
      "constant": false,
      "inputs": [],
      "name": "abstain",
      "outputs": [],
      "payable": false,
      "stateMutability": "nonpayable",
      "type": "function"
    },
    {
      "constant": false,
      "inputs": [],
      "name": "reqWinner",
      "outputs": [
        {
          "internalType": "uint256",
          "name": "",
          "type": "uint256"
        }
      ],
      "payable": false,
      "stateMutability": "nonpayable",
      "type": "function"
    }
  ],
  "bytecode": "0x60806040523480156200001157600080fd5b5060405162001c9738038062001c97833981810160405260208110156200003757600080fd5b8101908080519060200190929190505050336000806101000a81548173ffffffffffffffffffffffffffffffffffffffff021916908373ffffffffffffffffffffffffffffffffffffffff1602179055506001600260008060009054906101000a900473ffffffffffffffffffffffffffffffffffffffff1673ffffffffffffffffffffffffffffffffffffffff1673ffffffffffffffffffffffffffffffffffffffff168152602001908152602001600020600001819055508060ff166003816200010491906200015e565b506000600a60016101000a81548160ff021916908360028111156200012557fe5b02179055508060ff1660018190555060006004819055506000600a60006101000a81548160ff0219169083151502179055505062000260565b81548183558181111562000188578183600052602060002091820191016200018791906200018d565b5b505050565b620001bb91905b80821115620001b75760008181620001ad9190620001be565b5060010162000194565b5090565b90565b5080546000825590600052602060002090810190620001de9190620001e1565b50565b6200021291905b808211156200020e576000808201600062000204919062000215565b50600101620001e8565b5090565b90565b508054600082559060005260206000209081019062000235919062000238565b50565b6200025d91905b80821115620002595760008160009055506001016200023f565b5090565b90565b611a2780620002706000396000f3fe608060405234801561001057600080fd5b50600436106100b45760003560e01c80638fbb38ff116100715780638fbb38ff1461017e57806396f1b6be146101c0578063c19d93fb146101e2578063ce11f2bb1461020e578063dfbf53ae146102c6578063ffb9e30b146102e4576100b4565b8063167a92f8146100b95780631aa3a008146100d7578063268f1153146100e1578063508b30c9146101125780635e98e4c71461013057806365da12641461013a575b600080fd5b6100c1610326565b6040518082815260200191505060405180910390f35b6100df61032c565b005b610110600480360360208110156100f757600080fd5b81019080803560ff1690602001909291905050506104cc565b005b61011a6105b4565b6040518082815260200191505060405180910390f35b610138610cdb565b005b61017c6004803603602081101561015057600080fd5b81019080803573ffffffffffffffffffffffffffffffffffffffff169060200190929190505050610eb0565b005b6101aa6004803603602081101561019457600080fd5b81019080803590602001909291905050506113b0565b6040518082815260200191505060405180910390f35b6101c86113d1565b604051808215151515815260200191505060405180910390f35b6101ea6113e4565b604051808260028111156101fa57fe5b60ff16815260200191505060405180910390f35b6102c46004803603602081101561022457600080fd5b810190808035906020019064010000000081111561024157600080fd5b82018360208201111561025357600080fd5b8035906020019184602083028401116401000000008311171561027557600080fd5b919080806020026020016040519081016040528093929190818152602001838360200280828437600081840152601f19601f8201169050808301925050505050505091929192905050506113f7565b005b6102ce61186f565b6040518082815260200191505060405180910390f35b610310600480360360208110156102fa57600080fd5b8101908080359060200190929190505050611875565b6040518082815260200191505060405180910390f35b60085481565b600080600281111561033a57fe5b600a60019054906101000a900460ff16600281111561035557fe5b11156103c9576040517f08c379a00000000000000000000000000000000000000000000000000000000081526004018080602001828103825260208152602001807f506861736520697320696e76616c69642e20436f6e746163742061646d696e2e81525060200191505060405180910390fd5b6000600260003373ffffffffffffffffffffffffffffffffffffffff1673ffffffffffffffffffffffffffffffffffffffff1681526020019081526020016000206000015414610481576040517f08c379a00000000000000000000000000000000000000000000000000000000081526004018080602001828103825260138152602001807f416c72656164792072656769737465726564210000000000000000000000000081525060200191505060405180910390fd5b6001600260003373ffffffffffffffffffffffffffffffffffffffff1673ffffffffffffffffffffffffffffffffffffffff1681526020019081526020016000206000018190555050565b6000809054906101000a900473ffffffffffffffffffffffffffffffffffffffff1673ffffffffffffffffffffffffffffffffffffffff163373ffffffffffffffffffffffffffffffffffffffff161461058e576040517f08c379a00000000000000000000000000000000000000000000000000000000081526004018080602001828103825260168152602001807f594f552e205348414c4c2e204e4f542e2050415353210000000000000000000081525060200191505060405180910390fd5b80600a60016101000a81548160ff021916908360028111156105ac57fe5b021790555050565b600060028060028111156105c457fe5b600a60019054906101000a900460ff1660028111156105df57fe5b1115610653576040517f08c379a00000000000000000000000000000000000000000000000000000000081526004018080602001828103825260208152602001807f506861736520697320696e76616c69642e20436f6e746163742061646d696e2e81525060200191505060405180910390fd5b600a60009054906101000a900460ff1615610672576007549150610cd7565b7f1c6b7d09db25f036d9b434651b0b157ccedb38c4d2ebf1a04235db0d2b23abe7600060405180807f53544152542d4f462d43414c430000000000000000000000000000000000000081525060200182815260200191505060405180910390a160008090505b60018054038160ff161015610c6f5760008090506000610400905060006001549050600080905060008090505b6001548160ff1610156108ef5760006003805490501415610787577f1c6b7d09db25f036d9b434651b0b157ccedb38c4d2ebf1a04235db0d2b23abe78160405180807f454d5054592d50524f50000000000000000000000000000000000000000000008152506020018260ff16815260200191505060405180910390a16108e4565b60038160ff168154811061079757fe5b90600052602060002001805490508510156108355760038160ff16815481106107bc57fe5b906000526020600020018054905094507f1c6b7d09db25f036d9b434651b0b157ccedb38c4d2ebf1a04235db0d2b23abe78160405180807f4e45572d4d4158000000000000000000000000000000000000000000000000008152506020018260ff16815260200191505060405180910390a18060ff1692505b60038160ff168154811061084557fe5b90600052602060002001805490508411156108e35760038160ff168154811061086a57fe5b906000526020600020018054905093507f1c6b7d09db25f036d9b434651b0b157ccedb38c4d2ebf1a04235db0d2b23abe78160405180807f4e45572d4d494e000000000000000000000000000000000000000000000000008152506020018260ff16815260200191505060405180910390a18060ff1691505b5b600181019050610705565b506002600454816108fc57fe5b046003838154811061090a57fe5b906000526020600020018054905011156109af577f1c6b7d09db25f036d9b434651b0b157ccedb38c4d2ebf1a04235db0d2b23abe78260405180807f434849434b454e2d44494e4e455200000000000000000000000000000000000081525060200182815260200191505060405180910390a1816007819055506001600a60006101000a81548160ff0219169083151502179055506001820196505050505050610cd7565b7f1c6b7d09db25f036d9b434651b0b157ccedb38c4d2ebf1a04235db0d2b23abe78160405180807f5449452d425245414b455200000000000000000000000000000000000000000081525060200182815260200191505060405180910390a1606060038281548110610a1d57fe5b90600052602060002001805480602002602001604051908101604052809291908181526020016000905b82821015610acd5783829060005260206000200160405180602001604052908160008201805480602002602001604051908101604052809291908181526020018280548015610ab557602002820191906000526020600020905b815481526020019060010190808311610aa1575b50505050508152505081526020019060010190610a47565b50505050905060008090505b81518160ff161015610c3b57818160ff1681518110610af457fe5b60200260200101516000015160069080519060200190610b15929190611896565b506000600660016006805490500381548110610b2d57fe5b90600052602060002001549050600660016006805490500381548110610b4f57fe5b9060005260206000200160009055600160068054905003600681610b7391906118e3565b5060038181548110610b8157fe5b9060005260206000200160405180602001604052806006805480602002602001604051908101604052809291908181526020018280548015610be257602002820191906000526020600020905b815481526020019060010190808311610bce575b50505050508152509080600181540180825580915050906001820390600052602060002001600090919290919091506000820151816000019080519060200190610c2d92919061190f565b505050505060019050610ad9565b5060038281548110610c4957fe5b906000526020600020016000610c5f919061195c565b50505050506001810190506106d8565b507f1c6b7d09db25f036d9b434651b0b157ccedb38c4d2ebf1a04235db0d2b23abe760075460405180807f544849532d49532d5448452d454e44000000000000000000000000000000000081525060200182815260200191505060405180910390a160075491505b5090565b60001515600260003373ffffffffffffffffffffffffffffffffffffffff1673ffffffffffffffffffffffffffffffffffffffff16815260200190815260200160002060010160009054906101000a900460ff16151514610da4576040517f08c379a000000000000000000000000000000000000000000000000000000000815260040180806020018281038252600e8152602001807f4163636573732064656e6965642100000000000000000000000000000000000081525060200191505060405180910390fd5b6001806002811115610db257fe5b600a60019054906101000a900460ff166002811115610dcd57fe5b1115610e41576040517f08c379a00000000000000000000000000000000000000000000000000000000081526004018080602001828103825260208152602001807f506861736520697320696e76616c69642e20436f6e746163742061646d696e2e81525060200191505060405180910390fd5b6001600260003373ffffffffffffffffffffffffffffffffffffffff1673ffffffffffffffffffffffffffffffffffffffff16815260200190815260200160002060010160006101000a81548160ff021916908315150217905550600160056000828254019250508190555050565b60001515600260003373ffffffffffffffffffffffffffffffffffffffff1673ffffffffffffffffffffffffffffffffffffffff16815260200190815260200160002060010160009054906101000a900460ff16151514610f79576040517f08c379a000000000000000000000000000000000000000000000000000000000815260040180806020018281038252600e8152602001807f4163636573732064656e6965642100000000000000000000000000000000000081525060200191505060405180910390fd5b6001806002811115610f8757fe5b600a60019054906101000a900460ff166002811115610fa257fe5b1115611016576040517f08c379a00000000000000000000000000000000000000000000000000000000081526004018080602001828103825260208152602001807f506861736520697320696e76616c69642e20436f6e746163742061646d696e2e81525060200191505060405180910390fd5b3373ffffffffffffffffffffffffffffffffffffffff168273ffffffffffffffffffffffffffffffffffffffff1614156110b8576040517f08c379a00000000000000000000000000000000000000000000000000000000081526004018080602001828103825260178152602001807f446f6e27742064656c656761746520746f2073656c662e00000000000000000081525060200191505060405180910390fd5b6000600260003373ffffffffffffffffffffffffffffffffffffffff1673ffffffffffffffffffffffffffffffffffffffff16815260200190815260200160002090505b600073ffffffffffffffffffffffffffffffffffffffff16600260008573ffffffffffffffffffffffffffffffffffffffff1673ffffffffffffffffffffffffffffffffffffffff16815260200190815260200160002060030160009054906101000a900473ffffffffffffffffffffffffffffffffffffffff1673ffffffffffffffffffffffffffffffffffffffff161415801561122957503373ffffffffffffffffffffffffffffffffffffffff16600260008573ffffffffffffffffffffffffffffffffffffffff1673ffffffffffffffffffffffffffffffffffffffff16815260200190815260200160002060030160009054906101000a900473ffffffffffffffffffffffffffffffffffffffff1673ffffffffffffffffffffffffffffffffffffffff1614155b1561129857600260008473ffffffffffffffffffffffffffffffffffffffff1673ffffffffffffffffffffffffffffffffffffffff16815260200190815260200160002060030160009054906101000a900473ffffffffffffffffffffffffffffffffffffffff1692506110fc565b3373ffffffffffffffffffffffffffffffffffffffff168373ffffffffffffffffffffffffffffffffffffffff1614156112d157600080fd5b60018160010160006101000a81548160ff021916908315150217905550828160030160006101000a81548173ffffffffffffffffffffffffffffffffffffffff021916908373ffffffffffffffffffffffffffffffffffffffff1602179055506000600260008573ffffffffffffffffffffffffffffffffffffffff1673ffffffffffffffffffffffffffffffffffffffff16815260200190815260200160002090508060010160009054906101000a900460ff166113a557816000015481600001600082825401925050819055506113aa565b600080fd5b50505050565b600981815481106113bd57fe5b906000526020600020016000915090505481565b600a60009054906101000a900460ff1681565b600a60019054906101000a900460ff1681565b60001515600260003373ffffffffffffffffffffffffffffffffffffffff1673ffffffffffffffffffffffffffffffffffffffff16815260200190815260200160002060010160009054906101000a900460ff161515146114c0576040517f08c379a000000000000000000000000000000000000000000000000000000000815260040180806020018281038252600e8152602001807f4163636573732064656e6965642100000000000000000000000000000000000081525060200191505060405180910390fd5b60018060028111156114ce57fe5b600a60019054906101000a900460ff1660028111156114e957fe5b111561155d576040517f08c379a00000000000000000000000000000000000000000000000000000000081526004018080602001828103825260208152602001807f506861736520697320696e76616c69642e20436f6e746163742061646d696e2e81525060200191505060405180910390fd5b6000600260003373ffffffffffffffffffffffffffffffffffffffff1673ffffffffffffffffffffffffffffffffffffffff1681526020019081526020016000206000015411611615576040517f08c379a000000000000000000000000000000000000000000000000000000000815260040180806020018281038252600f8152602001807f526567697374657220666972737421000000000000000000000000000000000081525060200191505060405180910390fd5b6000339050600260008273ffffffffffffffffffffffffffffffffffffffff1673ffffffffffffffffffffffffffffffffffffffff168152602001908152602001600020600001546004600082825401925050819055506001600260008373ffffffffffffffffffffffffffffffffffffffff1673ffffffffffffffffffffffffffffffffffffffff16815260200190815260200160002060010160006101000a81548160ff02191690831515021790555082600690805190602001906116dd929190611896565b5082600990805190602001906116f4929190611896565b50600060066001600680549050038154811061170c57fe5b906000526020600020015490508060088190555060066001600680549050038154811061173557fe5b906000526020600020016000905560016006805490500360068161175991906118e3565b506003818154811061176757fe5b90600052602060002001604051806020016040528060068054806020026020016040519081016040528092919081815260200182805480156117c857602002820191906000526020600020905b8154815260200190600101908083116117b4575b5050505050815250908060018154018082558091505090600182039060005260206000200160009091929091909150600082015181600001908051906020019061181392919061190f565b50505050600260003373ffffffffffffffffffffffffffffffffffffffff1673ffffffffffffffffffffffffffffffffffffffff1681526020019081526020016000206000015460046000828254019250508190555050505050565b60075481565b6006818154811061188257fe5b906000526020600020016000915090505481565b8280548282559060005260206000209081019282156118d2579160200282015b828111156118d15782518255916020019190600101906118b6565b5b5090506118df919061197d565b5090565b81548183558181111561190a57818360005260206000209182019101611909919061197d565b5b505050565b82805482825590600052602060002090810192821561194b579160200282015b8281111561194a57825182559160200191906001019061192f565b5b509050611958919061197d565b5090565b508054600082559060005260206000209081019061197a91906119a2565b50565b61199f91905b8082111561199b576000816000905550600101611983565b5090565b90565b6119ce91905b808211156119ca57600080820160006119c191906119d1565b506001016119a8565b5090565b90565b50805460008255906000526020600020908101906119ef919061197d565b5056fea265627a7a72315820dd5e62078ef416e6f0a0ef51bc729dc008c6721a9435c59651dad27f320873dc64736f6c634300050b0032",
  "source": "pragma solidity ^0.5.11;\n\ncontract MSRVE_Ballot {\n\n    struct Voter {\n\n        uint weight;\n        bool voted;\n        uint8[] vote;\n        address delegate;\n    }\n\n    struct Proposal {\n        uint256[] vote;\n        // bytes vote;\n    }\n\n    address admin;\n    uint256 numProposals;\n    mapping(address => Voter) voters;\n    // Proposal[] proposals;\n    Proposal[][] proposals;\n\n    uint voteCount;\n    uint abstainCount;\n\n    // bytes _rankVote;\n\n    uint256[] public _rankVote;\n    uint256 public winner;\n    uint256 public cand;\n    uint256[] public voted;\n    bool public calc;\n\n    enum Phase {Regs, Vote, Done}\n\n    Phase public state;\n\n    modifier validPhase(Phase reqPhase) {require(state <= reqPhase, \"Phase is invalid. Contact admin.\"); _;}\n\n    modifier onlyAdmin() {require(msg.sender == admin, \"YOU. SHALL. NOT. PASS!\"); _;}\n\n    modifier canVote() {require(voters[msg.sender].voted == false, \"Access denied!\"); _;}\n\n    event LogEval(bytes32 message, uint256 amount);\n\n    constructor (uint8 num) public  {\n\n        admin = msg.sender;\n        voters[admin].weight = 1;\n        // check if this can be used for 2D array.\n        proposals.length = num;\n        state = Phase.Regs;\n        numProposals = num;\n        voteCount = 0;\n        // winner = -1;\n        calc = false;\n    }\n\n    function changeState(Phase x) public onlyAdmin{\n        state = x;\n    }\n\n    function register() public validPhase(Phase.Regs) {\n\n        require (voters[msg.sender].weight == 0, \"Already registered!\");   // So that func can run once per user.\n        voters[msg.sender].weight = 1;\n    }\n\n    function vote(uint256[] memory inputArray) public canVote validPhase(Phase.Vote) {\n\n        require(voters[msg.sender].weight > 0, \"Register first!\");\n\n        address voter = msg.sender;\n\n        voteCount += voters[voter].weight;\n        voters[voter].voted = true;\n\n        // bytes memory _tmp = inputArray;\n        // _rankVote = int(inputArray);\n\n        _rankVote = inputArray;\n        voted = inputArray;\n\n        // byte candidate = _rankVote.pop();\n\n        uint256 candidate = uint256(_rankVote[_rankVote.length - 1]);\n        cand = candidate;\n\n        delete _rankVote[_rankVote.length - 1];\n        _rankVote.length = _rankVote.length - 1;\n\n        proposals[candidate].push(Proposal(_rankVote));        // New data type is needed for pushing.\n        voteCount += voters[msg.sender].weight;\n    }\n\n    function delegatedTo(address to) public canVote validPhase(Phase.Vote) {\n\n        require(to != msg.sender, \"Don't delegate to self.\");\n\n        Voter storage sender = voters[msg.sender]; // assigns reference\n\n        while (voters[to].delegate != address(0) && voters[to].delegate != msg.sender)\n            to = voters[to].delegate;\n\n        if (to == msg.sender)\n            revert();\n\n        sender.voted = true;\n        sender.delegate = to;\n        Voter storage delegateTo = voters[to];\n\n        if (!delegateTo.voted)\n            delegateTo.weight += sender.weight;\n        else\n            revert();\n    }\n\n    function abstain() public canVote validPhase(Phase.Vote) {\n\n        voters[msg.sender].voted = true;\n        abstainCount += 1;\n    }\n\n    function reqWinner() public validPhase(Phase.Done) returns (uint256 ) {\n\n        if(calc)\n            return winner;\n\n        emit LogEval(\"START-OF-CALC\", 0);\n\n        for(uint8 recur = 0; recur < numProposals-1; recur += 1){\n            // Loop should have a solution in numProposals-1 iterations.\n            // While loop here could cause infinite loop.\n\n            uint256 max = 0;\n            uint256 min = 2**10;\n            uint256 win = numProposals;\n            uint256 lose = 0;\n\n            for(uint8 i = 0; i < numProposals; i += 1){\n\n                if(proposals.length == 0) {\n                    emit LogEval(\"EMPTY-PROP\", i);\n                    continue;\n                }\n\n                if(max<proposals[i].length){\n                    max = proposals[i].length;\n                    emit LogEval(\"NEW-MAX\", i);\n                    win = i;\n                }\n                if(min>proposals[i].length){\n                    min = proposals[i].length;\n                    emit LogEval(\"NEW-MIN\", i);\n                    lose = i;\n                }\n            }\n\n            if(proposals[win].length>voteCount/2){\n                // winningProposal = win;\n                // break;\n                emit LogEval(\"CHICKEN-DINNER\", win);\n                winner = win;\n                calc = true;\n                return win+1;\n            }\n            else {\n                emit LogEval(\"TIE-BREAKER\", lose);\n                Proposal[] memory deleteStack = proposals[lose];\n                for(uint8 j = 0; j < deleteStack.length; j = 1) {\n\n                    // Proposal memory tmp = deleteStack[j];\n                    // _rankVote = bytes(deleteStack[j].vote);\n\n                    _rankVote = deleteStack[j].vote;\n                    uint256 change = _rankVote[_rankVote.length - 1];\n                    delete _rankVote[_rankVote.length - 1];\n                    _rankVote.length = _rankVote.length - 1;\n                    proposals[change].push(Proposal(_rankVote));\n\n                    // byte change = tmp.vote[tmp.vote.length - 1];\n                    // delete tmp.vote[tmp.vote.length - 1];\n                    // tmp.vote.length -= 1;\n\n                }\n                delete proposals[lose];\n            }\n\n        }\n        emit LogEval(\"THIS-IS-THE-END\", winner);\n        return winner;\n        // return win;\n        // winningProposal = 0;\n    }\n}\n",
  "sourcePath": "/home/ved/MSRVE-Ballot-Dapp/ballot-contract/contracts/MSRVE_Ballot.sol",
  "compiler": {
    "name": "solc",
    "version": "0.5.11+commit.c082d0b4.Emscripten.clang"
  },
  "schemaVersion": "3.0.16",
  "updatedAt": "2019-10-29T19:36:28.546Z",
  "devdoc": {
    "methods": {}
  },
  "userdoc": {
    "methods": {}
  }
}