{
  "contractName": "MSRVE_Ballot",
  "abi": [
    {
      "constant": true,
      "inputs": [],
      "name": "cand",
      "outputs": [
        {
          "internalType": "uint256",
          "name": "",
          "type": "uint256"
        }
      ],
      "payable": false,
      "stateMutability": "view",
      "type": "function"
    },
    {
      "constant": true,
      "inputs": [
        {
          "internalType": "uint256",
          "name": "",
          "type": "uint256"
        }
      ],
      "name": "voted",
      "outputs": [
        {
          "internalType": "uint256",
          "name": "",
          "type": "uint256"
        }
      ],
      "payable": false,
      "stateMutability": "view",
      "type": "function"
    },
    {
      "constant": true,
      "inputs": [],
      "name": "calc",
      "outputs": [
        {
          "internalType": "bool",
          "name": "",
          "type": "bool"
        }
      ],
      "payable": false,
      "stateMutability": "view",
      "type": "function"
    },
    {
      "constant": true,
      "inputs": [],
      "name": "state",
      "outputs": [
        {
          "internalType": "enum MSRVE_Ballot.Phase",
          "name": "",
          "type": "uint8"
        }
      ],
      "payable": false,
      "stateMutability": "view",
      "type": "function"
    },
    {
      "constant": true,
      "inputs": [],
      "name": "winner",
      "outputs": [
        {
          "internalType": "uint256",
          "name": "",
          "type": "uint256"
        }
      ],
      "payable": false,
      "stateMutability": "view",
      "type": "function"
    },
    {
      "constant": true,
      "inputs": [
        {
          "internalType": "uint256",
          "name": "",
          "type": "uint256"
        }
      ],
      "name": "_rankVote",
      "outputs": [
        {
          "internalType": "uint256",
          "name": "",
          "type": "uint256"
        }
      ],
      "payable": false,
      "stateMutability": "view",
      "type": "function"
    },
    {
      "inputs": [
        {
          "internalType": "uint8",
          "name": "num",
          "type": "uint8"
        }
      ],
      "payable": false,
      "stateMutability": "nonpayable",
      "type": "constructor"
    },
    {
      "constant": false,
      "inputs": [
        {
          "internalType": "enum MSRVE_Ballot.Phase",
          "name": "x",
          "type": "uint8"
        }
      ],
      "name": "changeState",
      "outputs": [],
      "payable": false,
      "stateMutability": "nonpayable",
      "type": "function"
    },
    {
      "constant": false,
      "inputs": [],
      "name": "register",
      "outputs": [],
      "payable": false,
      "stateMutability": "nonpayable",
      "type": "function"
    },
    {
      "constant": false,
      "inputs": [
        {
          "internalType": "uint256[]",
          "name": "inputArray",
          "type": "uint256[]"
        }
      ],
      "name": "vote",
      "outputs": [],
      "payable": false,
      "stateMutability": "nonpayable",
      "type": "function"
    },
    {
      "constant": false,
      "inputs": [
        {
          "internalType": "address",
          "name": "to",
          "type": "address"
        }
      ],
      "name": "delegatedTo",
      "outputs": [],
      "payable": false,
      "stateMutability": "nonpayable",
      "type": "function"
    },
    {
      "constant": false,
      "inputs": [],
      "name": "abstain",
      "outputs": [],
      "payable": false,
      "stateMutability": "nonpayable",
      "type": "function"
    },
    {
      "constant": false,
      "inputs": [],
      "name": "reqWinner",
      "outputs": [
        {
          "internalType": "uint256",
          "name": "",
          "type": "uint256"
        }
      ],
      "payable": false,
      "stateMutability": "nonpayable",
      "type": "function"
    }
  ],
  "bytecode": "0x60806040523480156200001157600080fd5b50604051620018b7380380620018b7833981810160405260208110156200003757600080fd5b8101908080519060200190929190505050336000806101000a81548173ffffffffffffffffffffffffffffffffffffffff021916908373ffffffffffffffffffffffffffffffffffffffff1602179055506001600260008060009054906101000a900473ffffffffffffffffffffffffffffffffffffffff1673ffffffffffffffffffffffffffffffffffffffff1673ffffffffffffffffffffffffffffffffffffffff168152602001908152602001600020600001819055508060ff166003816200010491906200015e565b506000600a60016101000a81548160ff021916908360028111156200012557fe5b02179055508060ff1660018190555060006004819055506000600a60006101000a81548160ff0219169083151502179055505062000260565b81548183558181111562000188578183600052602060002091820191016200018791906200018d565b5b505050565b620001bb91905b80821115620001b75760008181620001ad9190620001be565b5060010162000194565b5090565b90565b5080546000825590600052602060002090810190620001de9190620001e1565b50565b6200021291905b808211156200020e576000808201600062000204919062000215565b50600101620001e8565b5090565b90565b508054600082559060005260206000209081019062000235919062000238565b50565b6200025d91905b80821115620002595760008160009055506001016200023f565b5090565b90565b61164780620002706000396000f3fe608060405234801561001057600080fd5b50600436106100b45760003560e01c80638fbb38ff116100715780638fbb38ff1461017e57806396f1b6be146101c0578063c19d93fb146101e2578063ce11f2bb1461020e578063dfbf53ae146102c6578063ffb9e30b146102e4576100b4565b8063167a92f8146100b95780631aa3a008146100d7578063268f1153146100e1578063508b30c9146101125780635e98e4c71461013057806365da12641461013a575b600080fd5b6100c1610326565b6040518082815260200191505060405180910390f35b6100df61032c565b005b610110600480360360208110156100f757600080fd5b81019080803560ff169060200190929190505050610463565b005b61011a61054b565b6040518082815260200191505060405180910390f35b6101386109cd565b005b61017c6004803603602081101561015057600080fd5b81019080803573ffffffffffffffffffffffffffffffffffffffff169060200190929190505050610ba2565b005b6101aa6004803603602081101561019457600080fd5b8101908080359060200190929190505050611039565b6040518082815260200191505060405180910390f35b6101c861105a565b604051808215151515815260200191505060405180910390f35b6101ea61106d565b604051808260028111156101fa57fe5b60ff16815260200191505060405180910390f35b6102c46004803603602081101561022457600080fd5b810190808035906020019064010000000081111561024157600080fd5b82018360208201111561025357600080fd5b8035906020019184602083028401116401000000008311171561027557600080fd5b919080806020026020016040519081016040528093929190818152602001838360200280828437600081840152601f19601f820116905080830192505050505050509192919290505050611080565b005b6102ce61148f565b6040518082815260200191505060405180910390f35b610310600480360360208110156102fa57600080fd5b8101908080359060200190929190505050611495565b6040518082815260200191505060405180910390f35b60085481565b600080600281111561033a57fe5b600a60019054906101000a900460ff16600281111561035557fe5b11156103c9576040517f08c379a00000000000000000000000000000000000000000000000000000000081526004018080602001828103825260208152602001807f506861736520697320696e76616c69642e20436f6e746163742061646d696e2e81525060200191505060405180910390fd5b6000600260003373ffffffffffffffffffffffffffffffffffffffff1673ffffffffffffffffffffffffffffffffffffffff168152602001908152602001600020600001541461041857600080fd5b6001600260003373ffffffffffffffffffffffffffffffffffffffff1673ffffffffffffffffffffffffffffffffffffffff1681526020019081526020016000206000018190555050565b6000809054906101000a900473ffffffffffffffffffffffffffffffffffffffff1673ffffffffffffffffffffffffffffffffffffffff163373ffffffffffffffffffffffffffffffffffffffff1614610525576040517f08c379a00000000000000000000000000000000000000000000000000000000081526004018080602001828103825260168152602001807f594f552e205348414c4c2e204e4f542e2050415353210000000000000000000081525060200191505060405180910390fd5b80600a60016101000a81548160ff0219169083600281111561054357fe5b021790555050565b6000600280600281111561055b57fe5b600a60019054906101000a900460ff16600281111561057657fe5b11156105ea576040517f08c379a00000000000000000000000000000000000000000000000000000000081526004018080602001828103825260208152602001807f506861736520697320696e76616c69642e20436f6e746163742061646d696e2e81525060200191505060405180910390fd5b600a60009054906101000a900460ff16156106095760075491506109c9565b60008090505b60018054038160ff1610156109c25760008090506000610400905060006001549050600080905060008090505b6001548160ff161015610700576000600380549050141561065c576106f5565b60038160ff168154811061066c57fe5b90600052602060002001805490508510156106a85760038160ff168154811061069157fe5b906000526020600020018054905094508060ff1692505b60038160ff16815481106106b857fe5b90600052602060002001805490508411156106f45760038160ff16815481106106dd57fe5b906000526020600020018054905093508060ff1691505b5b60018101905061063c565b5060026004548161070d57fe5b046003838154811061071b57fe5b9060005260206000200180549050111561076157816007819055506001600a60006101000a81548160ff02191690831515021790555060018201965050505050506109c9565b60606003828154811061077057fe5b90600052602060002001805480602002602001604051908101604052809291908181526020016000905b82821015610820578382906000526020600020016040518060200160405290816000820180548060200260200160405190810160405280929190818152602001828054801561080857602002820191906000526020600020905b8154815260200190600101908083116107f4575b5050505050815250508152602001906001019061079a565b50505050905060008090505b81518160ff16101561098e57818160ff168151811061084757fe5b602002602001015160000151600690805190602001906108689291906114b6565b50600060066001600680549050038154811061088057fe5b906000526020600020015490506006600160068054905003815481106108a257fe5b90600052602060002001600090556001600680549050036006816108c69190611503565b50600381815481106108d457fe5b906000526020600020016040518060200160405280600680548060200260200160405190810160405280929190818152602001828054801561093557602002820191906000526020600020905b815481526020019060010190808311610921575b5050505050815250908060018154018082558091505090600182039060005260206000200160009091929091909150600082015181600001908051906020019061098092919061152f565b50505050506001905061082c565b506003828154811061099c57fe5b9060005260206000200160006109b2919061157c565b505050505060018101905061060f565b5060075491505b5090565b60001515600260003373ffffffffffffffffffffffffffffffffffffffff1673ffffffffffffffffffffffffffffffffffffffff16815260200190815260200160002060010160009054906101000a900460ff16151514610a96576040517f08c379a000000000000000000000000000000000000000000000000000000000815260040180806020018281038252600e8152602001807f4163636573732064656e6965642100000000000000000000000000000000000081525060200191505060405180910390fd5b6001806002811115610aa457fe5b600a60019054906101000a900460ff166002811115610abf57fe5b1115610b33576040517f08c379a00000000000000000000000000000000000000000000000000000000081526004018080602001828103825260208152602001807f506861736520697320696e76616c69642e20436f6e746163742061646d696e2e81525060200191505060405180910390fd5b6001600260003373ffffffffffffffffffffffffffffffffffffffff1673ffffffffffffffffffffffffffffffffffffffff16815260200190815260200160002060010160006101000a81548160ff021916908315150217905550600160056000828254019250508190555050565b60001515600260003373ffffffffffffffffffffffffffffffffffffffff1673ffffffffffffffffffffffffffffffffffffffff16815260200190815260200160002060010160009054906101000a900460ff16151514610c6b576040517f08c379a000000000000000000000000000000000000000000000000000000000815260040180806020018281038252600e8152602001807f4163636573732064656e6965642100000000000000000000000000000000000081525060200191505060405180910390fd5b6001806002811115610c7957fe5b600a60019054906101000a900460ff166002811115610c9457fe5b1115610d08576040517f08c379a00000000000000000000000000000000000000000000000000000000081526004018080602001828103825260208152602001807f506861736520697320696e76616c69642e20436f6e746163742061646d696e2e81525060200191505060405180910390fd5b3373ffffffffffffffffffffffffffffffffffffffff168273ffffffffffffffffffffffffffffffffffffffff161415610d4157600080fd5b6000600260003373ffffffffffffffffffffffffffffffffffffffff1673ffffffffffffffffffffffffffffffffffffffff16815260200190815260200160002090505b600073ffffffffffffffffffffffffffffffffffffffff16600260008573ffffffffffffffffffffffffffffffffffffffff1673ffffffffffffffffffffffffffffffffffffffff16815260200190815260200160002060030160009054906101000a900473ffffffffffffffffffffffffffffffffffffffff1673ffffffffffffffffffffffffffffffffffffffff1614158015610eb257503373ffffffffffffffffffffffffffffffffffffffff16600260008573ffffffffffffffffffffffffffffffffffffffff1673ffffffffffffffffffffffffffffffffffffffff16815260200190815260200160002060030160009054906101000a900473ffffffffffffffffffffffffffffffffffffffff1673ffffffffffffffffffffffffffffffffffffffff1614155b15610f2157600260008473ffffffffffffffffffffffffffffffffffffffff1673ffffffffffffffffffffffffffffffffffffffff16815260200190815260200160002060030160009054906101000a900473ffffffffffffffffffffffffffffffffffffffff169250610d85565b3373ffffffffffffffffffffffffffffffffffffffff168373ffffffffffffffffffffffffffffffffffffffff161415610f5a57600080fd5b60018160010160006101000a81548160ff021916908315150217905550828160030160006101000a81548173ffffffffffffffffffffffffffffffffffffffff021916908373ffffffffffffffffffffffffffffffffffffffff1602179055506000600260008573ffffffffffffffffffffffffffffffffffffffff1673ffffffffffffffffffffffffffffffffffffffff16815260200190815260200160002090508060010160009054906101000a900460ff1661102e5781600001548160000160008282540192505081905550611033565b600080fd5b50505050565b6009818154811061104657fe5b906000526020600020016000915090505481565b600a60009054906101000a900460ff1681565b600a60019054906101000a900460ff1681565b60001515600260003373ffffffffffffffffffffffffffffffffffffffff1673ffffffffffffffffffffffffffffffffffffffff16815260200190815260200160002060010160009054906101000a900460ff16151514611149576040517f08c379a000000000000000000000000000000000000000000000000000000000815260040180806020018281038252600e8152602001807f4163636573732064656e6965642100000000000000000000000000000000000081525060200191505060405180910390fd5b600180600281111561115757fe5b600a60019054906101000a900460ff16600281111561117257fe5b11156111e6576040517f08c379a00000000000000000000000000000000000000000000000000000000081526004018080602001828103825260208152602001807f506861736520697320696e76616c69642e20436f6e746163742061646d696e2e81525060200191505060405180910390fd5b6000600260003373ffffffffffffffffffffffffffffffffffffffff1673ffffffffffffffffffffffffffffffffffffffff168152602001908152602001600020600001541161123557600080fd5b6000339050600260008273ffffffffffffffffffffffffffffffffffffffff1673ffffffffffffffffffffffffffffffffffffffff168152602001908152602001600020600001546004600082825401925050819055506001600260008373ffffffffffffffffffffffffffffffffffffffff1673ffffffffffffffffffffffffffffffffffffffff16815260200190815260200160002060010160006101000a81548160ff02191690831515021790555082600690805190602001906112fd9291906114b6565b5082600990805190602001906113149291906114b6565b50600060066001600680549050038154811061132c57fe5b906000526020600020015490508060088190555060066001600680549050038154811061135557fe5b90600052602060002001600090556001600680549050036006816113799190611503565b506003818154811061138757fe5b90600052602060002001604051806020016040528060068054806020026020016040519081016040528092919081815260200182805480156113e857602002820191906000526020600020905b8154815260200190600101908083116113d4575b5050505050815250908060018154018082558091505090600182039060005260206000200160009091929091909150600082015181600001908051906020019061143392919061152f565b50505050600260003373ffffffffffffffffffffffffffffffffffffffff1673ffffffffffffffffffffffffffffffffffffffff1681526020019081526020016000206000015460046000828254019250508190555050505050565b60075481565b600681815481106114a257fe5b906000526020600020016000915090505481565b8280548282559060005260206000209081019282156114f2579160200282015b828111156114f15782518255916020019190600101906114d6565b5b5090506114ff919061159d565b5090565b81548183558181111561152a57818360005260206000209182019101611529919061159d565b5b505050565b82805482825590600052602060002090810192821561156b579160200282015b8281111561156a57825182559160200191906001019061154f565b5b509050611578919061159d565b5090565b508054600082559060005260206000209081019061159a91906115c2565b50565b6115bf91905b808211156115bb5760008160009055506001016115a3565b5090565b90565b6115ee91905b808211156115ea57600080820160006115e191906115f1565b506001016115c8565b5090565b90565b508054600082559060005260206000209081019061160f919061159d565b5056fea265627a7a7231582049596a23635dbd27781dd9fa8049f67a8eecbc46123253cad744e86632e1030864736f6c634300050b0032",
  "source": "pragma solidity ^0.5.11;\n\ncontract MSRVE_Ballot {\n\n    \n\n    struct Voter {\n\n        \n\n        uint weight;\n\n        bool voted;\n\n        uint8[] vote;\n\n        address delegate;\n\n    }\n\n    struct Proposal {                  \n\n        uint256[] vote;\n\n        // bytes vote;\n\n    }\n\n\n\n    address admin;\n\n    uint256 numProposals;\n\n    mapping(address => Voter) voters;  \n\n    // Proposal[] proposals;\n\n    Proposal[][] proposals;\n\n    \n\n    uint voteCount;\n\n    uint abstainCount;\n\n    \n\n    // bytes _rankVote;\n\n    uint256[] public _rankVote;\n\n    \n\n    uint256 public winner;\n\n    uint256 public cand;\n\n    uint256[] public voted;\n\n    bool public calc;\n\n\n\n    enum Phase {Regs, Vote, Done}  \n\n    Phase public state;\n\n    \n\n    modifier validPhase(Phase reqPhase) { require(state <= reqPhase, \"Phase is invalid. Contact admin.\"); _; }\n\n    \n\n    modifier onlyAdmin() { require(msg.sender == admin, \"YOU. SHALL. NOT. PASS!\"); _; }\n\n    \n\n    modifier canVote() { require(voters[msg.sender].voted == false, \"Access denied!\"); _; }\n\n    \n\n    constructor (uint8 num) public  {\n\n        \n\n        admin = msg.sender;\n\n        voters[admin].weight = 1;\n\n        // check if this can be used for 2D array.\n\n        proposals.length = num;\n\n        state = Phase.Regs;\n\n        numProposals = num;\n\n        voteCount = 0;\n\n        // winner = -1;\n\n        calc = false;\n\n    }\n\n    \n\n    function changeState(Phase x) onlyAdmin public {\n\n        \n\n        state = x;\n\n    }\n\n    \n\n    function register() public validPhase(Phase.Regs) {\n\n        \n\n        require (voters[msg.sender].weight == 0);   // So that func can run once per user.\n\n        voters[msg.sender].weight = 1;\n\n        \n\n    }\n\n    \n\n    function vote(uint256[] memory inputArray) public canVote validPhase(Phase.Vote) {\n\n        \n\n        require(voters[msg.sender].weight > 0);\n\n        \n\n        address voter = msg.sender;\n\n        \n\n        voteCount += voters[voter].weight;\n\n        voters[voter].voted = true;\n\n        \n\n        // bytes memory _tmp = inputArray;\n\n        // _rankVote = int(inputArray);\n\n        _rankVote = inputArray;\n\n        voted = inputArray;\n\n        \n\n        // byte candidate = _rankVote.pop();\n\n        uint256 candidate = uint256(_rankVote[_rankVote.length - 1]);\n\n        cand = candidate;\n\n        delete _rankVote[_rankVote.length - 1];\n\n        _rankVote.length = _rankVote.length - 1;\n\n        \n\n        proposals[candidate].push(Proposal(_rankVote));        // New data type is needed for pushing.\n\n        voteCount += voters[msg.sender].weight;\n\n        \n\n    }\n\n    \n\n    function delegatedTo(address to) public canVote validPhase(Phase.Vote) {\n\n        \n\n        require(to != msg.sender);\n\n        \n\n        Voter storage sender = voters[msg.sender]; // assigns reference\n\n        \n\n        \n\n        while (voters[to].delegate != address(0) && voters[to].delegate != msg.sender)\n\n            to = voters[to].delegate;\n\n        \n\n        if (to == msg.sender)\n\n            revert();\n\n        \n\n        sender.voted = true;\n\n        sender.delegate = to;\n\n        Voter storage delegateTo = voters[to];\n\n        \n\n        if (!delegateTo.voted)\n\n            delegateTo.weight += sender.weight;\n\n        else\n\n            revert();\n\n    }\n\n    \n\n    function abstain() public canVote validPhase(Phase.Vote) {\n\n        \n\n        voters[msg.sender].voted = true;\n\n        abstainCount += 1;\n\n        \n\n    }\n\n    \n\n    function reqWinner() public validPhase(Phase.Done) returns (uint256 ) {\n\n        // This function is a stub and is yet to be written on account of requirement of multiple loops. \n\n        // Only zero is returned for now.\n\n        \n\n        if(calc)\n\n            return winner;\n\n        \n\n        for(uint8 recur = 0; recur < numProposals-1; recur+=1){\n\n            // Loop should have a solution in numProposals-1 iterations.\n\n            // While loop here could cause infinite loop.\n\n            \n\n            uint256 max = 0;\n\n            uint256 min = 2**10;\n\n            uint256 win = numProposals;\n\n            uint256 lose = 0;\n\n            \n\n            for(uint8 i = 0; i < numProposals; i+=1){\n\n                \n\n                if(proposals.length == 0)\n\n                    continue;\n\n                \n\n                if(max<proposals[i].length){\n\n                    max=proposals[i].length;\n\n                    win = i;\n\n                }\n\n                if(min>proposals[i].length){\n\n                    min=proposals[i].length;\n\n                    lose = i;\n\n                }\n\n            }\n\n            \n\n            if(proposals[win].length>voteCount/2){\n\n                // winningProposal = win;\n\n                // break;\n\n                winner = win;\n\n                calc = true;\n\n                return win+1;\n\n            }\n\n            else {\n\n                Proposal[] memory deleteStack = proposals[lose];\n\n                for(uint8 j = 0; j < deleteStack.length; j=1){\n\n                    \n\n                    // Proposal memory tmp = deleteStack[j];\n\n                    \n\n                    // _rankVote = bytes(deleteStack[j].vote);\n\n                    _rankVote = deleteStack[j].vote;\n\n                    uint256 change =  _rankVote[_rankVote.length - 1];\n\n                    delete _rankVote[_rankVote.length - 1];\n\n                    _rankVote.length = _rankVote.length - 1;\n\n                    proposals[change].push(Proposal(_rankVote));\n\n                    \n\n                    \n\n                    // byte change = tmp.vote[tmp.vote.length - 1];\n\n                    // delete tmp.vote[tmp.vote.length - 1];\n\n                    // tmp.vote.length -= 1;\n\n                    \n\n                }\n\n                delete proposals[lose];\n\n            }\n\n            \n\n            \n\n        }\n\n        return winner;\n\n        // return win;\n\n        \n\n        // winningProposal = 0;\n\n    }\n\n}\n",
  "sourcePath": "/home/ved/MSRVE-Ballot-Dapp/ballot-contract/contracts/MSRVE_Ballot.sol",
  "compiler": {
    "name": "solc",
    "version": "0.5.11+commit.c082d0b4.Emscripten.clang"
  },
  "schemaVersion": "3.0.16",
  "updatedAt": "2019-10-29T16:19:23.122Z",
  "devdoc": {
    "methods": {}
  },
  "userdoc": {
    "methods": {}
  }
}